{
  "contractName": "Voting",
  "abi": [
    {
      "anonymous": false,
      "inputs": [
        {
          "indexed": true,
          "internalType": "address",
          "name": "previousOwner",
          "type": "address"
        },
        {
          "indexed": true,
          "internalType": "address",
          "name": "newOwner",
          "type": "address"
        }
      ],
      "name": "OwnershipTransferred",
      "type": "event"
    },
    {
      "anonymous": false,
      "inputs": [
        {
          "components": [
            {
              "internalType": "string",
              "name": "description",
              "type": "string"
            },
            {
              "internalType": "uint256",
              "name": "voteCount",
              "type": "uint256"
            }
          ],
          "indexed": false,
          "internalType": "struct Voting.Proposal",
          "name": "propal",
          "type": "tuple"
        }
      ],
      "name": "ProposalRegistered",
      "type": "event"
    },
    {
      "anonymous": false,
      "inputs": [],
      "name": "ProposalsRegistrationEnded",
      "type": "event"
    },
    {
      "anonymous": false,
      "inputs": [],
      "name": "ProposalsRegistrationStarted",
      "type": "event"
    },
    {
      "anonymous": false,
      "inputs": [
        {
          "indexed": false,
          "internalType": "address",
          "name": "voter",
          "type": "address"
        },
        {
          "indexed": false,
          "internalType": "uint256",
          "name": "proposalId",
          "type": "uint256"
        }
      ],
      "name": "Voted",
      "type": "event"
    },
    {
      "anonymous": false,
      "inputs": [
        {
          "indexed": false,
          "internalType": "address",
          "name": "voterAddress",
          "type": "address"
        }
      ],
      "name": "VoterRegistered",
      "type": "event"
    },
    {
      "anonymous": false,
      "inputs": [],
      "name": "VotesTallied",
      "type": "event"
    },
    {
      "anonymous": false,
      "inputs": [],
      "name": "VotingSessionEnded",
      "type": "event"
    },
    {
      "anonymous": false,
      "inputs": [],
      "name": "VotingSessionStarted",
      "type": "event"
    },
    {
      "anonymous": false,
      "inputs": [
        {
          "indexed": false,
          "internalType": "enum Voting.WorkflowStatus",
          "name": "previousStatus",
          "type": "uint8"
        },
        {
          "indexed": false,
          "internalType": "enum Voting.WorkflowStatus",
          "name": "newStatus",
          "type": "uint8"
        }
      ],
      "name": "WorkflowStatusChange",
      "type": "event"
    },
    {
      "inputs": [],
      "name": "_wfs",
      "outputs": [
        {
          "internalType": "enum Voting.WorkflowStatus",
          "name": "",
          "type": "uint8"
        }
      ],
      "stateMutability": "view",
      "type": "function",
      "constant": true
    },
    {
      "inputs": [],
      "name": "_winningProposal",
      "outputs": [
        {
          "internalType": "string",
          "name": "description",
          "type": "string"
        },
        {
          "internalType": "uint256",
          "name": "voteCount",
          "type": "uint256"
        }
      ],
      "stateMutability": "view",
      "type": "function",
      "constant": true
    },
    {
      "inputs": [
        {
          "internalType": "uint256",
          "name": "",
          "type": "uint256"
        }
      ],
      "name": "adresses",
      "outputs": [
        {
          "internalType": "address",
          "name": "",
          "type": "address"
        }
      ],
      "stateMutability": "view",
      "type": "function",
      "constant": true
    },
    {
      "inputs": [],
      "name": "owner",
      "outputs": [
        {
          "internalType": "address",
          "name": "",
          "type": "address"
        }
      ],
      "stateMutability": "view",
      "type": "function",
      "constant": true
    },
    {
      "inputs": [
        {
          "internalType": "uint256",
          "name": "",
          "type": "uint256"
        }
      ],
      "name": "proposals",
      "outputs": [
        {
          "internalType": "string",
          "name": "description",
          "type": "string"
        },
        {
          "internalType": "uint256",
          "name": "voteCount",
          "type": "uint256"
        }
      ],
      "stateMutability": "view",
      "type": "function",
      "constant": true
    },
    {
      "inputs": [],
      "name": "renounceOwnership",
      "outputs": [],
      "stateMutability": "nonpayable",
      "type": "function"
    },
    {
      "inputs": [
        {
          "internalType": "address",
          "name": "newOwner",
          "type": "address"
        }
      ],
      "name": "transferOwnership",
      "outputs": [],
      "stateMutability": "nonpayable",
      "type": "function"
    },
    {
      "inputs": [
        {
          "internalType": "address",
          "name": "",
          "type": "address"
        }
      ],
      "name": "voters",
      "outputs": [
        {
          "internalType": "bool",
          "name": "isRegistered",
          "type": "bool"
        },
        {
          "internalType": "bool",
          "name": "hasVoted",
          "type": "bool"
        },
        {
          "internalType": "uint256",
          "name": "votedProposalId",
          "type": "uint256"
        }
      ],
      "stateMutability": "view",
      "type": "function",
      "constant": true
    },
    {
      "inputs": [],
      "name": "startRegisteringVoters",
      "outputs": [],
      "stateMutability": "nonpayable",
      "type": "function"
    },
    {
      "inputs": [],
      "name": "startProposalRegistration",
      "outputs": [],
      "stateMutability": "nonpayable",
      "type": "function"
    },
    {
      "inputs": [],
      "name": "stopProposalRegistration",
      "outputs": [],
      "stateMutability": "nonpayable",
      "type": "function"
    },
    {
      "inputs": [],
      "name": "startVotingSession",
      "outputs": [],
      "stateMutability": "nonpayable",
      "type": "function"
    },
    {
      "inputs": [],
      "name": "stopVotingSession",
      "outputs": [],
      "stateMutability": "nonpayable",
      "type": "function"
    },
    {
      "inputs": [],
      "name": "votesTallied",
      "outputs": [],
      "stateMutability": "nonpayable",
      "type": "function"
    },
    {
      "inputs": [
        {
          "internalType": "address",
          "name": "_voter",
          "type": "address"
        }
      ],
      "name": "registerVoter",
      "outputs": [],
      "stateMutability": "nonpayable",
      "type": "function"
    },
    {
      "inputs": [
        {
          "internalType": "uint256",
          "name": "_proposalId",
          "type": "uint256"
        }
      ],
      "name": "vote",
      "outputs": [],
      "stateMutability": "nonpayable",
      "type": "function"
    },
    {
      "inputs": [
        {
          "internalType": "string",
          "name": "_description",
          "type": "string"
        }
      ],
      "name": "giveProposal",
      "outputs": [],
      "stateMutability": "nonpayable",
      "type": "function"
    },
    {
      "inputs": [],
      "name": "getProposals",
      "outputs": [
        {
          "components": [
            {
              "internalType": "string",
              "name": "description",
              "type": "string"
            },
            {
              "internalType": "uint256",
              "name": "voteCount",
              "type": "uint256"
            }
          ],
          "internalType": "struct Voting.Proposal[]",
          "name": "",
          "type": "tuple[]"
        }
      ],
      "stateMutability": "view",
      "type": "function",
      "constant": true
    },
    {
      "inputs": [],
      "name": "getAdresses",
      "outputs": [
        {
          "internalType": "address[]",
          "name": "",
          "type": "address[]"
        }
      ],
      "stateMutability": "view",
      "type": "function",
      "constant": true
    },
    {
      "inputs": [],
      "name": "getWorkFlowStatus",
      "outputs": [
        {
          "internalType": "string",
          "name": "",
          "type": "string"
        }
      ],
      "stateMutability": "view",
      "type": "function",
      "constant": true
    },
    {
      "inputs": [],
      "name": "winnerName",
      "outputs": [
        {
          "internalType": "string",
          "name": "",
          "type": "string"
        }
      ],
      "stateMutability": "view",
      "type": "function",
      "constant": true
    }
  ],
  "bytecode": "0x608060405234801561001057600080fd5b5060006100216100c460201b60201c565b9050806000806101000a81548173ffffffffffffffffffffffffffffffffffffffff021916908373ffffffffffffffffffffffffffffffffffffffff1602179055508073ffffffffffffffffffffffffffffffffffffffff16600073ffffffffffffffffffffffffffffffffffffffff167f8be0079c531659141344cd1fd0a4f28419497f9722a3daafe3b4186f6b6457e060405160405180910390a3506100cc565b600033905090565b61288a806100db6000396000f3fe608060405234801561001057600080fd5b50600436106101375760003560e01c8063715018a6116100b8578063c881a1691161007c578063c881a169146102ce578063c8e999b8146102ec578063da01c0df146102f6578063e2ba53f014610314578063ee74c67814610332578063f2fde38b1461033c57610137565b8063715018a61461024c5780638764fae5146102565780638da5cb5b14610274578063a3ec138d14610292578063ada7415f146102c457610137565b806338db6dd3116100ff57806338db6dd3146101cd5780634201349a146101e957806349a5de31146102085780634abfba2b1461022457806362564c481461022e57610137565b80630121b93f1461013c578063013cf08b146101585780630f7e28381461018957806317a0ad8e1461019357806324f72efe1461019d575b600080fd5b61015660048036038101906101519190611d9e565b610358565b005b610172600480360381019061016d9190611d9e565b6105bb565b6040516101809291906123c9565b60405180910390f35b610191610677565b005b61019b61072b565b005b6101b760048036038101906101b29190611d9e565b6107df565b6040516101c491906122a4565b60405180910390f35b6101e760048036038101906101e29190611d34565b61081e565b005b6101f1610b37565b6040516101ff9291906123c9565b60405180910390f35b610222600480360381019061021d9190611d5d565b610bd1565b005b61022c610d3d565b005b610236610df1565b604051610243919061230a565b60405180910390f35b610254610eec565b005b61025e611026565b60405161026b9190612363565b60405180910390f35b61027c611039565b60405161028991906122a4565b60405180910390f35b6102ac60048036038101906102a79190611d34565b611062565b6040516102bb9392919061232c565b60405180910390f35b6102cc6110a6565b005b6102d661115a565b6040516102e391906122e8565b60405180910390f35b6102f46111e8565b005b6102fe611270565b60405161030b91906123a7565b60405180910390f35b61031c61174b565b60405161032991906123a7565b60405180910390f35b61033a61182d565b005b61035660048036038101906103519190611d34565b6118e1565b005b60036005811115610392577f4e487b7100000000000000000000000000000000000000000000000000000000600052602160045260246000fd5b600060149054906101000a900460ff1660058111156103da577f4e487b7100000000000000000000000000000000000000000000000000000000600052602160045260246000fd5b1461041a576040517f08c379a000000000000000000000000000000000000000000000000000000000815260040161041190612459565b60405180910390fd5b6000600360003373ffffffffffffffffffffffffffffffffffffffff1673ffffffffffffffffffffffffffffffffffffffff16815260200190815260200160002090508060000160009054906101000a900460ff166104ae576040517f08c379a00000000000000000000000000000000000000000000000000000000081526004016104a5906123f9565b60405180910390fd5b8060000160019054906101000a900460ff1615610500576040517f08c379a00000000000000000000000000000000000000000000000000000000081526004016104f790612479565b60405180910390fd5b60018160000160016101000a81548160ff02191690831515021790555060058281548110610557577f4e487b7100000000000000000000000000000000000000000000000000000000600052603260045260246000fd5b90600052602060002090600202016001016000815480929190610579906126fc565b91905055507f4d99b957a2bc29a30ebd96a7be8e68fe50a3c701db28a91436490b7d53870ca433836040516105af9291906122bf565b60405180910390a15050565b600581815481106105cb57600080fd5b90600052602060002090600202016000915090508060000180546105ee906126ca565b80601f016020809104026020016040519081016040528092919081815260200182805461061a906126ca565b80156106675780601f1061063c57610100808354040283529160200191610667565b820191906000526020600020905b81548152906001019060200180831161064a57829003601f168201915b5050505050908060010154905082565b61067f611a8a565b73ffffffffffffffffffffffffffffffffffffffff1661069d611039565b73ffffffffffffffffffffffffffffffffffffffff16146106f3576040517f08c379a00000000000000000000000000000000000000000000000000000000081526004016106ea90612499565b60405180910390fd5b6106fd6001611a92565b7f344c25562921d075a298d34b6dd1fd00d36ff293974539dfd4a8c625d9f0064c60405160405180910390a1565b610733611a8a565b73ffffffffffffffffffffffffffffffffffffffff16610751611039565b73ffffffffffffffffffffffffffffffffffffffff16146107a7576040517f08c379a000000000000000000000000000000000000000000000000000000000815260040161079e90612499565b60405180910390fd5b6107b16004611a92565b7fc379d349a6301baf50fb2f98d829f4ae10b1cdb7c66f4e4d8117302df7b8cd4c60405160405180910390a1565b600481815481106107ef57600080fd5b906000526020600020016000915054906101000a900473ffffffffffffffffffffffffffffffffffffffff1681565b610826611a8a565b73ffffffffffffffffffffffffffffffffffffffff16610844611039565b73ffffffffffffffffffffffffffffffffffffffff161461089a576040517f08c379a000000000000000000000000000000000000000000000000000000000815260040161089190612499565b60405180910390fd5b600060058111156108d4577f4e487b7100000000000000000000000000000000000000000000000000000000600052602160045260246000fd5b600060149054906101000a900460ff16600581111561091c577f4e487b7100000000000000000000000000000000000000000000000000000000600052602160045260246000fd5b1461095c576040517f08c379a000000000000000000000000000000000000000000000000000000000815260040161095390612439565b60405180910390fd5b600360008273ffffffffffffffffffffffffffffffffffffffff1673ffffffffffffffffffffffffffffffffffffffff16815260200190815260200160002060000160009054906101000a900460ff16156109ec576040517f08c379a00000000000000000000000000000000000000000000000000000000081526004016109e3906124d9565b60405180910390fd5b60405180606001604052806001151581526020016000151581526020016000815250600360008373ffffffffffffffffffffffffffffffffffffffff1673ffffffffffffffffffffffffffffffffffffffff16815260200190815260200160002060008201518160000160006101000a81548160ff02191690831515021790555060208201518160000160016101000a81548160ff021916908315150217905550604082015181600101559050506004819080600181540180825580915050600190039060005260206000200160009091909190916101000a81548173ffffffffffffffffffffffffffffffffffffffff021916908373ffffffffffffffffffffffffffffffffffffffff1602179055507fb6be2187d059cc2a55fe29e0e503b566e1e0f8c8780096e185429350acffd3dd81604051610b2c91906122a4565b60405180910390a150565b6001806000018054610b48906126ca565b80601f0160208091040260200160405190810160405280929190818152602001828054610b74906126ca565b8015610bc15780601f10610b9657610100808354040283529160200191610bc1565b820191906000526020600020905b815481529060010190602001808311610ba457829003601f168201915b5050505050908060010154905082565b60016005811115610c0b577f4e487b7100000000000000000000000000000000000000000000000000000000600052602160045260246000fd5b600060149054906101000a900460ff166005811115610c53577f4e487b7100000000000000000000000000000000000000000000000000000000600052602160045260246000fd5b14610c93576040517f08c379a0000000000000000000000000000000000000000000000000000000008152600401610c8a906124b9565b60405180910390fd5b600060405180604001604052808381526020016000815250905060058190806001815401808255809150506001900390600052602060002090600202016000909190919091506000820151816000019080519060200190610cf5929190611bff565b506020820151816001015550507f494ca7a89a4b4ed6022c4c6a04538e55c316e67da23ade8c70c1b2e86e64827c81604051610d3191906124f9565b60405180910390a15050565b610d45611a8a565b73ffffffffffffffffffffffffffffffffffffffff16610d63611039565b73ffffffffffffffffffffffffffffffffffffffff1614610db9576040517f08c379a0000000000000000000000000000000000000000000000000000000008152600401610db090612499565b60405180910390fd5b610dc36002611a92565b7f240cb87b2e4df4c318e72bd714d45a9cad60249e883ff56b1fffd83a4595a8fa60405160405180910390a1565b60606005805480602002602001604051908101604052809291908181526020016000905b82821015610ee35783829060005260206000209060020201604051806040016040529081600082018054610e48906126ca565b80601f0160208091040260200160405190810160405280929190818152602001828054610e74906126ca565b8015610ec15780601f10610e9657610100808354040283529160200191610ec1565b820191906000526020600020905b815481529060010190602001808311610ea457829003601f168201915b5050505050815260200160018201548152505081526020019060010190610e15565b50505050905090565b610ef4611a8a565b73ffffffffffffffffffffffffffffffffffffffff16610f12611039565b73ffffffffffffffffffffffffffffffffffffffff1614610f68576040517f08c379a0000000000000000000000000000000000000000000000000000000008152600401610f5f90612499565b60405180910390fd5b600073ffffffffffffffffffffffffffffffffffffffff1660008054906101000a900473ffffffffffffffffffffffffffffffffffffffff1673ffffffffffffffffffffffffffffffffffffffff167f8be0079c531659141344cd1fd0a4f28419497f9722a3daafe3b4186f6b6457e060405160405180910390a360008060006101000a81548173ffffffffffffffffffffffffffffffffffffffff021916908373ffffffffffffffffffffffffffffffffffffffff160217905550565b600060149054906101000a900460ff1681565b60008060009054906101000a900473ffffffffffffffffffffffffffffffffffffffff16905090565b60036020528060005260406000206000915090508060000160009054906101000a900460ff16908060000160019054906101000a900460ff16908060010154905083565b6110ae611a8a565b73ffffffffffffffffffffffffffffffffffffffff166110cc611039565b73ffffffffffffffffffffffffffffffffffffffff1614611122576040517f08c379a000000000000000000000000000000000000000000000000000000000815260040161111990612499565b60405180910390fd5b61112c6005611a92565b7f0e5e95ff8725ab3e7a4b6b59998a4c344c2aa8d1485f5e60cb7f337768e6134760405160405180910390a1565b606060048054806020026020016040519081016040528092919081815260200182805480156111de57602002820191906000526020600020905b8160009054906101000a900473ffffffffffffffffffffffffffffffffffffffff1673ffffffffffffffffffffffffffffffffffffffff1681526020019060010190808311611194575b5050505050905090565b6111f0611a8a565b73ffffffffffffffffffffffffffffffffffffffff1661120e611039565b73ffffffffffffffffffffffffffffffffffffffff1614611264576040517f08c379a000000000000000000000000000000000000000000000000000000000815260040161125b90612499565b60405180910390fd5b61126e6000611a92565b565b6060600060058111156112ac577f4e487b7100000000000000000000000000000000000000000000000000000000600052602160045260246000fd5b600060149054906101000a900460ff1660058111156112f4577f4e487b7100000000000000000000000000000000000000000000000000000000600052602160045260246000fd5b1415611337576040518060400160405280601181526020017f5265676973746572696e67566f746572730000000000000000000000000000008152509050611748565b60016005811115611371577f4e487b7100000000000000000000000000000000000000000000000000000000600052602160045260246000fd5b600060149054906101000a900460ff1660058111156113b9577f4e487b7100000000000000000000000000000000000000000000000000000000600052602160045260246000fd5b14156113fc576040518060400160405280601c81526020017f50726f706f73616c73526567697374726174696f6e53746172746564000000008152509050611748565b60026005811115611436577f4e487b7100000000000000000000000000000000000000000000000000000000600052602160045260246000fd5b600060149054906101000a900460ff16600581111561147e577f4e487b7100000000000000000000000000000000000000000000000000000000600052602160045260246000fd5b14156114c1576040518060400160405280601a81526020017f50726f706f73616c73526567697374726174696f6e456e6465640000000000008152509050611748565b600360058111156114fb577f4e487b7100000000000000000000000000000000000000000000000000000000600052602160045260246000fd5b600060149054906101000a900460ff166005811115611543577f4e487b7100000000000000000000000000000000000000000000000000000000600052602160045260246000fd5b1415611586576040518060400160405280601481526020017f566f74696e6753657373696f6e537461727465640000000000000000000000008152509050611748565b600460058111156115c0577f4e487b7100000000000000000000000000000000000000000000000000000000600052602160045260246000fd5b600060149054906101000a900460ff166005811115611608577f4e487b7100000000000000000000000000000000000000000000000000000000600052602160045260246000fd5b141561164b576040518060400160405280601281526020017f566f74696e6753657373696f6e456e64656400000000000000000000000000008152509050611748565b600580811115611684577f4e487b7100000000000000000000000000000000000000000000000000000000600052602160045260246000fd5b600060149054906101000a900460ff1660058111156116cc577f4e487b7100000000000000000000000000000000000000000000000000000000600052602160045260246000fd5b141561170f576040518060400160405280600c81526020017f566f74657354616c6c69656400000000000000000000000000000000000000008152509050611748565b6040518060400160405280601181526020017f5265676973746572696e67566f7465727300000000000000000000000000000081525090505b90565b60606005611757611b2b565b8154811061178e577f4e487b7100000000000000000000000000000000000000000000000000000000600052603260045260246000fd5b906000526020600020906002020160000180546117aa906126ca565b80601f01602080910402602001604051908101604052809291908181526020018280546117d6906126ca565b80156118235780601f106117f857610100808354040283529160200191611823565b820191906000526020600020905b81548152906001019060200180831161180657829003601f168201915b5050505050905090565b611835611a8a565b73ffffffffffffffffffffffffffffffffffffffff16611853611039565b73ffffffffffffffffffffffffffffffffffffffff16146118a9576040517f08c379a00000000000000000000000000000000000000000000000000000000081526004016118a090612499565b60405180910390fd5b6118b36003611a92565b7f1b8e19a458c1bcd88553332c518cc5c4e2d5793e712ee766d4f1c14f672ef1f560405160405180910390a1565b6118e9611a8a565b73ffffffffffffffffffffffffffffffffffffffff16611907611039565b73ffffffffffffffffffffffffffffffffffffffff161461195d576040517f08c379a000000000000000000000000000000000000000000000000000000000815260040161195490612499565b60405180910390fd5b600073ffffffffffffffffffffffffffffffffffffffff168173ffffffffffffffffffffffffffffffffffffffff1614156119cd576040517f08c379a00000000000000000000000000000000000000000000000000000000081526004016119c490612419565b60405180910390fd5b8073ffffffffffffffffffffffffffffffffffffffff1660008054906101000a900473ffffffffffffffffffffffffffffffffffffffff1673ffffffffffffffffffffffffffffffffffffffff167f8be0079c531659141344cd1fd0a4f28419497f9722a3daafe3b4186f6b6457e060405160405180910390a3806000806101000a81548173ffffffffffffffffffffffffffffffffffffffff021916908373ffffffffffffffffffffffffffffffffffffffff16021790555050565b600033905090565b7f0a97a4ee45751e2abf3e4fc8946939630b11b371ea8ae39ccdc3056e98f5cc3f600060149054906101000a900460ff1682600060146101000a81548160ff02191690836005811115611b0e577f4e487b7100000000000000000000000000000000000000000000000000000000600052602160045260246000fd5b02179055604051611b2092919061237e565b60405180910390a150565b6000806000905060005b600580549050811015611bfa578160058281548110611b7d577f4e487b7100000000000000000000000000000000000000000000000000000000600052603260045260246000fd5b9060005260206000209060020201600101541115611be75760058181548110611bcf577f4e487b7100000000000000000000000000000000000000000000000000000000600052603260045260246000fd5b90600052602060002090600202016001015491508092505b8080611bf2906126fc565b915050611b35565b505090565b828054611c0b906126ca565b90600052602060002090601f016020900481019282611c2d5760008555611c74565b82601f10611c4657805160ff1916838001178555611c74565b82800160010185558215611c74579182015b82811115611c73578251825591602001919060010190611c58565b5b509050611c819190611c85565b5090565b5b80821115611c9e576000816000905550600101611c86565b5090565b6000611cb5611cb08461254c565b61251b565b905082815260208101848484011115611ccd57600080fd5b611cd8848285612688565b509392505050565b600081359050611cef81612826565b92915050565b600082601f830112611d0657600080fd5b8135611d16848260208601611ca2565b91505092915050565b600081359050611d2e8161283d565b92915050565b600060208284031215611d4657600080fd5b6000611d5484828501611ce0565b91505092915050565b600060208284031215611d6f57600080fd5b600082013567ffffffffffffffff811115611d8957600080fd5b611d9584828501611cf5565b91505092915050565b600060208284031215611db057600080fd5b6000611dbe84828501611d1f565b91505092915050565b6000611dd38383611df3565b60208301905092915050565b6000611deb838361220c565b905092915050565b611dfc8161261b565b82525050565b611e0b8161261b565b82525050565b6000611e1c8261259c565b611e2681856125d7565b9350611e318361257c565b8060005b83811015611e62578151611e498882611dc7565b9750611e54836125bd565b925050600181019050611e35565b5085935050505092915050565b6000611e7a826125a7565b611e8481856125e8565b935083602082028501611e968561258c565b8060005b85811015611ed25784840389528151611eb38582611ddf565b9450611ebe836125ca565b925060208a01995050600181019050611e9a565b50829750879550505050505092915050565b611eed8161262d565b82525050565b611efc81612676565b82525050565b6000611f0d826125b2565b611f1781856125f9565b9350611f27818560208601612697565b611f3081612801565b840191505092915050565b6000611f46826125b2565b611f50818561260a565b9350611f60818560208601612697565b611f6981612801565b840191505092915050565b6000611f8160288361260a565b91507f766f7465722068617320746f2062652072656769737465726564206265666f7260008301527f6520766f74696e670000000000000000000000000000000000000000000000006020830152604082019050919050565b6000611fe760268361260a565b91507f4f776e61626c653a206e6577206f776e657220697320746865207a65726f206160008301527f64647265737300000000000000000000000000000000000000000000000000006020830152604082019050919050565b600061204d60248361260a565b91507f566f74696e67206d75737420626520696e205265676973746572696e6720737460008301527f61747573000000000000000000000000000000000000000000000000000000006020830152604082019050919050565b60006120b360158361260a565b91507f566f74696e67206d757374206265204f70656e656400000000000000000000006000830152602082019050919050565b60006120f3600e8361260a565b91507f416c726561647920766f7465642e0000000000000000000000000000000000006000830152602082019050919050565b600061213360208361260a565b91507f4f776e61626c653a2063616c6c6572206973206e6f7420746865206f776e65726000830152602082019050919050565b600061217360308361260a565b91507f566f74696e67206d75737420626520696e20526567697374726174696f6e206f60008301527f662050726f706f73616c73206d6f6465000000000000000000000000000000006020830152604082019050919050565b60006121d960188361260a565b91507f766f74657220416c7265616479207265676973746572656400000000000000006000830152602082019050919050565b600060408301600083015184820360008601526122298282611f02565b915050602083015161223e6020860182612286565b508091505092915050565b600060408301600083015184820360008601526122668282611f02565b915050602083015161227b6020860182612286565b508091505092915050565b61228f8161266c565b82525050565b61229e8161266c565b82525050565b60006020820190506122b96000830184611e02565b92915050565b60006040820190506122d46000830185611e02565b6122e16020830184612295565b9392505050565b600060208201905081810360008301526123028184611e11565b905092915050565b600060208201905081810360008301526123248184611e6f565b905092915050565b60006060820190506123416000830186611ee4565b61234e6020830185611ee4565b61235b6040830184612295565b949350505050565b60006020820190506123786000830184611ef3565b92915050565b60006040820190506123936000830185611ef3565b6123a06020830184611ef3565b9392505050565b600060208201905081810360008301526123c18184611f3b565b905092915050565b600060408201905081810360008301526123e38185611f3b565b90506123f26020830184612295565b9392505050565b6000602082019050818103600083015261241281611f74565b9050919050565b6000602082019050818103600083015261243281611fda565b9050919050565b6000602082019050818103600083015261245281612040565b9050919050565b60006020820190508181036000830152612472816120a6565b9050919050565b60006020820190508181036000830152612492816120e6565b9050919050565b600060208201905081810360008301526124b281612126565b9050919050565b600060208201905081810360008301526124d281612166565b9050919050565b600060208201905081810360008301526124f2816121cc565b9050919050565b600060208201905081810360008301526125138184612249565b905092915050565b6000604051905081810181811067ffffffffffffffff82111715612542576125416127d2565b5b8060405250919050565b600067ffffffffffffffff821115612567576125666127d2565b5b601f19601f8301169050602081019050919050565b6000819050602082019050919050565b6000819050602082019050919050565b600081519050919050565b600081519050919050565b600081519050919050565b6000602082019050919050565b6000602082019050919050565b600082825260208201905092915050565b600082825260208201905092915050565b600082825260208201905092915050565b600082825260208201905092915050565b60006126268261264c565b9050919050565b60008115159050919050565b600081905061264782612812565b919050565b600073ffffffffffffffffffffffffffffffffffffffff82169050919050565b6000819050919050565b600061268182612639565b9050919050565b82818337600083830152505050565b60005b838110156126b557808201518184015260208101905061269a565b838111156126c4576000848401525b50505050565b600060028204905060018216806126e257607f821691505b602082108114156126f6576126f56127a3565b5b50919050565b60006127078261266c565b91507fffffffffffffffffffffffffffffffffffffffffffffffffffffffffffffffff82141561273a57612739612745565b5b600182019050919050565b7f4e487b7100000000000000000000000000000000000000000000000000000000600052601160045260246000fd5b7f4e487b7100000000000000000000000000000000000000000000000000000000600052602160045260246000fd5b7f4e487b7100000000000000000000000000000000000000000000000000000000600052602260045260246000fd5b7f4e487b7100000000000000000000000000000000000000000000000000000000600052604160045260246000fd5b6000601f19601f8301169050919050565b6006811061282357612822612774565b5b50565b61282f8161261b565b811461283a57600080fd5b50565b6128468161266c565b811461285157600080fd5b5056fea2646970667358221220f5269964080e205ea51d9c3629e568645d51b3496ff6aefaef0903159307040064736f6c63430008000033",
  "immutableReferences": {},
  "source": "// SPDX-License-Identifier: GPL-3.0\npragma solidity 0.8.0;\nimport \"@openzeppelin/contracts/access/Ownable.sol\";\n\n/** \n * @title Voting\n * @dev Implements voting process along with vote delegation\n */\n\ncontract Voting is Ownable {\n\n\n    WorkflowStatus public _wfs ;\n\n    Proposal public _winningProposal;\n\n    mapping(address => Voter) public voters;\n    address[] public adresses;\n\n  \n    Proposal[] public proposals;\n\n    struct Voter {\n        bool isRegistered;\n        bool hasVoted;\n        uint votedProposalId;\n    }\n\n    struct Proposal {\n        string description;\n        uint voteCount;\n    }\n\n    enum WorkflowStatus {\n        RegisteringVoters,\n        ProposalsRegistrationStarted,\n        ProposalsRegistrationEnded,\n        VotingSessionStarted,\n        VotingSessionEnded,\n        VotesTallied\n    }\n\n    event VoterRegistered(address voterAddress);\n    event ProposalsRegistrationStarted();\n    event ProposalsRegistrationEnded();\n    event ProposalRegistered(Proposal propal);\n    event VotingSessionStarted();\n    event VotingSessionEnded();\n    event Voted (address voter, uint proposalId);\n    event VotesTallied();\n    event WorkflowStatusChange(WorkflowStatus previousStatus, WorkflowStatus newStatus);\n\n    function changeStatus(WorkflowStatus _toThisWorkflow) internal {\n        emit WorkflowStatusChange(_wfs, _wfs=_toThisWorkflow);\n    }\n   function startRegisteringVoters() public onlyOwner {\n        changeStatus(WorkflowStatus.RegisteringVoters);\n   }\n   function startProposalRegistration() public onlyOwner {\n        changeStatus(WorkflowStatus.ProposalsRegistrationStarted);\n        emit ProposalsRegistrationStarted();\n   }\n   function stopProposalRegistration() public onlyOwner {\n        changeStatus(WorkflowStatus.ProposalsRegistrationEnded);\n        emit ProposalsRegistrationEnded();\n   }\n   function startVotingSession() public onlyOwner {\n        changeStatus(WorkflowStatus.VotingSessionStarted);\n        emit VotingSessionStarted();\n   }\n   function stopVotingSession() public onlyOwner {\n        changeStatus(WorkflowStatus.VotingSessionEnded);\n        emit VotingSessionEnded();\n   }\n\n   function votesTallied() public onlyOwner {\n        changeStatus(WorkflowStatus.VotesTallied);\n        emit VotesTallied();\n   }\n\n   function registerVoter( address _voter) public onlyOwner {\n\n       require(_wfs==WorkflowStatus.RegisteringVoters, \"Voting must be in Registering status\");\n       require(!voters[_voter].isRegistered, \"voter Already registered\");\n\n\n       voters[_voter] = Voter({isRegistered: true, hasVoted:false, votedProposalId:0});\n       adresses.push(_voter);\n       \n\n       emit VoterRegistered(_voter);\n   }\n\n    /**\n     * @dev Give your vote \n     * @param _proposalId index of proposal in the proposals array\n     */\n    function vote(uint _proposalId) public {\n\n     require(_wfs==WorkflowStatus.VotingSessionStarted, \"Voting must be Opened\");\n\n\n        Voter storage sender = voters[msg.sender];\n        require(sender.isRegistered, \"voter has to be registered before voting\");\n        require(!sender.hasVoted, \"Already voted.\");\n\n        sender.hasVoted = true;\n\n        // If '_proposalId' is out of the range of the array,\n        // this will throw automatically and revert all\n        // changes.\n\n        proposals[_proposalId].voteCount++;\n        emit Voted (msg.sender, _proposalId);\n\n    }\n\n    /**\n     * @dev Give your proposal \n     * @param _description of proposal to add in the proposals array\n     */\n    function giveProposal(string memory _description) public {\n\n        require(_wfs==WorkflowStatus.ProposalsRegistrationStarted, \"Voting must be in Registration of Proposals mode\");\n\n        Proposal memory propal = Proposal({description : _description, voteCount: 0});\n\n        proposals.push(propal);\n\n        emit ProposalRegistered(propal);\n\n    }\n\n   function getProposals() public view returns(Proposal[] memory){\n       return proposals;\n   }\n\n\n   function getAdresses() public view returns(address[] memory){\n       return adresses;\n   }\n\n   function getWorkFlowStatus() public view returns (string memory) {\n\n\n        if ( _wfs == WorkflowStatus.RegisteringVoters ) return 'RegisteringVoters';\n        if ( _wfs == WorkflowStatus.ProposalsRegistrationStarted ) return 'ProposalsRegistrationStarted';\n        if ( _wfs == WorkflowStatus.ProposalsRegistrationEnded ) return 'ProposalsRegistrationEnded';\n        if ( _wfs == WorkflowStatus.VotingSessionStarted ) return 'VotingSessionStarted'; \n        if ( _wfs == WorkflowStatus.VotingSessionEnded ) return 'VotingSessionEnded'; \n        if ( _wfs == WorkflowStatus.VotesTallied ) return 'VotesTallied'; \n \n        // Default\n\n        return 'RegisteringVoters';\n \n   }\n\n    /** \n     * @dev Computes the winning proposal taking all previous votes into account.\n     * @return winningProposal_ index of winning proposal in the proposals array\n     */\n    function winningProposal() internal view\n            returns (uint winningProposal_)\n    {\n        uint winningVoteCount = 0;\n\n        for (uint p = 0; p < proposals.length; p++) {\n            if (proposals[p].voteCount > winningVoteCount) {\n                winningVoteCount = proposals[p].voteCount;\n                winningProposal_ = p;\n            }\n        }\n\n        return winningProposal_;\n    }\n    /** \n     * @dev Calls winningProposal() function to get the index of the winner contained in the proposals array and then\n     * @return winnerName_ the name of the winner\n     */\n    function winnerName() public view\n            returns (string memory)\n    {\n\n        return proposals[winningProposal()].description;\n\n    }\n\n}",
  "sourcePath": "/home/livingst/dev/dapp-voting-function/contracts/Voting.sol",
  "compiler": {
    "name": "solc",
    "version": "0.8.0+commit.c7dfd78e.Emscripten.clang"
  },
  "schemaVersion": "3.3.4",
  "updatedAt": "2021-04-22T22:04:13.652Z",
  "networkType": "ethereum",
  "devdoc": {
    "details": "Implements voting process along with vote delegation",
    "kind": "dev",
    "methods": {
      "giveProposal(string)": {
        "details": "Give your proposal ",
        "params": {
          "_description": "of proposal to add in the proposals array"
        }
      },
      "owner()": {
        "details": "Returns the address of the current owner."
      },
      "renounceOwnership()": {
        "details": "Leaves the contract without owner. It will not be possible to call `onlyOwner` functions anymore. Can only be called by the current owner. NOTE: Renouncing ownership will leave the contract without an owner, thereby removing any functionality that is only available to the owner."
      },
      "transferOwnership(address)": {
        "details": "Transfers ownership of the contract to a new account (`newOwner`). Can only be called by the current owner."
      },
      "vote(uint256)": {
        "details": "Give your vote ",
        "params": {
          "_proposalId": "index of proposal in the proposals array"
        }
      },
      "winnerName()": {
        "details": "Calls winningProposal() function to get the index of the winner contained in the proposals array and then",
        "returns": {
          "_0": "winnerName_ the name of the winner"
        }
      }
    },
    "title": "Voting",
    "version": 1
  },
  "userdoc": {
    "kind": "user",
    "methods": {},
    "version": 1
  }
}